:10000000FC7F0020110F0000510400004D0400008F
:1000100000000000000000000000000000000000E0
:100020000000000000000000000000004904000083
:10003000000000000000000045040000AD030000C7
:1000400010B5064C2378002B07D1054B002B02D0AE
:10005000044800E000BF0123237010BD5C000020B5
:100060000000000004160000044B10B5002B03D064
:100070000349044800E000BF10BDC0460000000076
:100080006000002004160000024B187E4007C00FDD
:100090007047C0460008004210B5FFF7F5FF002882
:1000A000FBD0074B1A00197E4907FCD5598BC907AD
:1000B00003D4598B890700D45B8B108DC0B210BD5F
:1000C00000080042F8B5002506000F002C00FFF7DD
:1000D000E3FF114A1378002B1CD1FF21230A0140B2
:1000E0004B4021020D4C5B001C5B53884C40A4B27A
:1000F000002B02D11279002A06D030700136802FF1
:1001000002D1054A013B53800135ADB2AF42DED189
:100110002000F8BD0124FBE778000020BC1300009C
:1001200010B50400FFF7B8FF2070012010BD044B8C
:10013000C0B21A7ED207FCD580B218850120704764
:10014000000800420023F0B52E4D85B007002B704B
:10015000994211D1013364242B714320FFF7E7FF4B
:10016000294EFFF791FF00280AD1002E06D1013C4D
:10017000002CF2D120000DE06980ECE7013EF0E7B1
:10018000002EF4D00126FFF787FF2B78002B03D039
:100190000020287005B0F0BDFF231840012805D0CD
:1001A00004282CD0002301202B71F3E7022103A89F
:1001B000FFF788FF80213800FFF784FF0190FFF7E9
:1001C0006BFF000284B2FFF767FF019B2418A4B203
:1001D000A34209D102AB1B79B34205D1F34302AA72
:1001E0005279DBB29A4203D01820FFF7A0FFD9E77B
:1001F00006200136FFF79BFFF6B28037C3E70620E3
:10020000F3E7C0467800002000350C000023F0B56D
:10021000394D85B003900C002B70994253D10133B6
:100220002B717F231C4201D080349C43FFF734FFA5
:100230002B78002B03D000232B70FFF72DFFC0B2CB
:10024000432803D071283CD01528EFD10123019316
:100250000120FFF76CFF0198FFF769FF019B8025E4
:10026000D8430027C0B2FFF762FF039B0293224AE4
:100270005388002B02D11679002E06D00299013B3B
:1002800053800B000E78013302933000FFF74FFFCD
:100290003B0A5E40194B7600F65A3F027E4036B26A
:1002A000013DB7B2002DE2D1380AFFF740FFF0B2AE
:1002B000FFF73DFFFFF7F0FE0F4E3378002B04D021
:1002C0003570002016E06980AAE7FF231840062851
:1002D00007D1019B803C0133DBB20193039B803348
:1002E0000393002CB4D10420FFF721FFFFF7D4FEC5
:1002F0000120347105B0F0BD78000020BC1300006F
:1003000070B504000D004618B44201D1280070BD3C
:100310002078FFF70CFF0134F6E7030010B5080062
:10032000110098478022034B12055A616422024B48
:10033000DA8010BD0044004178000020F0B5194B70
:100340000A00197A85B0DC68002929D0042A1FD157
:1003500000680F263027520004AB9B180B3B9D1AF8
:1003600001003140092919D839431970013B0009AE
:100370009D42F5D10A200C4B01A90B808B18987077
:100380000330D8700432E068FFF7C7FF05B0F0BD56
:10039000022A01D10088DCE70078DAE73731E4E7A8
:1003A0000100F0E77800002030780000214A224B5D
:1003B000117C002908D11978587809188020C9B211
:1003C00059701E498002C861117C0131C9B2117493
:1003D0005978F02902D85978092908D8197849425A
:1003E00049B21970197858780918C9B25970117C36
:1003F0005B78994203D18021104B8902D961D3885F
:10040000002B09D0D388013B9BB2D380002B03D1B2
:1004100080210A4B09059961538A002B08D0538A21
:10042000013B9BB25382002B02D10822044B1A607D
:100430007047C046780000200000002000440041C2
:100440009844004102BEFEE705BEFEE70DBEFEE792
:100450000EBEFEE710230249CA681A42FCD070475C
:1004600000080040024A53785BB2002BFBDB704768
:10047000000C0040074AFF3053699B0B9B035361FC
:10048000022303728279823B13438371037A9B07B1
:10049000FCD570472803002010220823F0B58FB048
:1004A00000AFBA18D1180B00B74A31CA31C331CAEC
:1004B00031C311CA11C3B54AB54C93685B035B0FD6
:1004C0009B005B5863619168FA6089B24B43A361FA
:1004D00000237A21E361631CD977E36840211B691B
:1004E000AC489847002804D00822AB4B1A6064231C
:1004F0006382A84B6066A3660023E366E36E626EC8
:100500009342EAD2A36E1B78FF2B54D0232B00D04A
:10051000BDE1237A002B05D0E36802229F49D86809
:10052000FFF7FBFE601CC37F532B4DD1636EE56E5E
:10053000AB4219D9A16E226F01354E1CA666E56645
:100540005B1B93423ED26367636F31001A00E06920
:10055000BB6000F0D5FEBB683A7AED18F6182300B0
:100560007833E566A6661A70E36E216F013BE36699
:10057000A36E013BA366230078331B788B420BD21A
:10058000C91AE368E0699B699847002804D00822EB
:10059000814B1A6064236382C0467A22631CDA7737
:1005A00000232367237A002B05D0E36801227C49CE
:1005B000D868FFF7B2FEE36E0133E366A36E013342
:1005C000A3669BE76267BFE7522B06D1E368226F01
:1005D000E1695869FFF7A1FEDFE74F2B03D1236FD5
:1005E000E2691370D9E7482B03D1236FE2691380C6
:1005F000D3E7572B03D1E369226F1A60CDE76F2B46
:1006000004D10121E069FFF799FEC6E7682B05D107
:10061000E3696F301B8802212367F4E7772B05D14C
:10062000E3696F301B6804212367ECE7472B16D181
:10063000236F72B6EFF30882E2671A6882F30888C4
:100640005B681847E36F83F3088862B6554B1B78E5
:10065000002BA2D0E36806201B6898479DE7542B27
:1006600008D1533B23720222E3684C49D868FFF754
:1006700054FE92E74E2B0BD1237A002B05D1E36871
:1006800002224649D868FFF748FE0023237284E718
:10069000562B55D1E36801224349D868FFF73DFE48
:1006A000E368394903222031D868FFF736FE3F4D11
:1006B000E36801222900D868FFF72FFEE36832497A
:1006C0000D222431D868FFF728FEE36801222900B3
:1006D000D868FFF722FE002301201A00844634491F
:1006E000E36634488E5C8018002E23D1002B00D0A6
:1006F000E266E368A066E26ED868FFF70EFEE36884
:1007000001222900D868FFF708FE002301201A0003
:1007100084462949E3664E1C8D5CB018002D0CD12F
:10072000002B00D0E266E368A066E26ED868FFF7AF
:10073000F4FD98E701326346D3E701326346EBE705
:10074000582B15D16269236FA1691C4892008B4216
:1007500003D3E36803221A4988E7FE685D08F56160
:10076000FD682880FD682D7DED07FBD59B18EEE721
:10077000592B58D1236FE1690A4A002B24D15160CB
:10078000E36803220F4971E738130000004000417D
:10079000780000209900002094440041E0150000FA
:1007A000E3150000F8000020BC150000BE15000095
:1007B000C0150000C1150000CC15000002A5FFFF08
:1007C000D5150000D915000080205668FA689B08EE
:1007D00052688243F8684260626992087A603E4AD1
:1007E0009446002BCCD06046FA681080FA68127DDF
:1007F000D207FBD50D000022BE6078682900BE68D4
:10080000824201D09A4208D1F868344D0580F868D8
:10081000007DC007FBD59B1AE3E7B868013202C828
:10082000B86002C5E9E75A2B00D0B6E60025E369B7
:10083000226F2B48991899421FD1E3680122D8688A
:100840002849FFF76AFD07230F222A40D0B2010092
:100850002D093031092A00DD07311022BA18D15490
:10086000013BF1D21021E36808227918D868FFF71C
:1008700054FDE36803221C49F8E61E782A0A7240F8
:100880005200125A2D025540ADB20133D3E71A007F
:10089000303AD1B2092904D8236F1B0113432367CF
:1008A00089E61A00413A052A03D8226F373B120124
:1008B000F4E71A00613A052A03D8226F573B120168
:1008C000ECE700222C2B03D1236FE361226772E651
:1008D000611CCB77FAE7C04644A5FFFF04A5FFFFE4
:1008E000BC130000DD150000DF150000F8B51A4F3D
:1008F00006003B7A08001400002B12D1174B184A4F
:1009000018491A645A6C920B92035A645A6C0A4042
:100910005A64A22240235200B15C0B43B35401231A
:100920003B724825FF35735DDB07DB0F12D00B4AA6
:10093000536C9B049B0C9C4202D9546CA404A40CE1
:100940002200074900F0DCFC0123735500233B72B1
:100950002000F8BD1C00FBE7F80000202803002061
:10096000E8020020FF3F00F013B56B46DC1D044B8E
:1009700001222100D868FFF7B9FF207816BDC046D4
:10098000F8000020F7B5009001201C4D1C005B0111
:1009900016000193EA18536910325B005B0F0333B2
:1009A0009840B04221D8802350681B06034353600F
:1009B0006301ED1829616B69B1049B0B890C9B03E2
:1009C0000B436B616B690E4908340B406B61009BF4
:1009D00064011C190223E3716279823B1343637142
:1009E000E3799B07FCD53000FEBD064BA701FF183D
:1009F0003200380000F084FC3900D9E728030020D9
:100A0000FF3F00F02802002010B50C000A00010092
:100A100003480123C068FFF7B5FF200010BDC046A2
:100A2000F8000020012307B5019004481A0001A92D
:100A3000C068FFF7A7FF01200EBDC046F8000020E8
:100A400070B50500C0B0080016000C0000F061FC95
:100A50006B464000023018706A46032376085370D4
:100A6000023B5A1EA15C5A00002901D09E4206DCBE
:100A7000002369462800FFF785FF40B070BD684637
:100A800001338152EDE7F7B5056808222900AB8BE9
:100A900006001340FF31002B27D080234020C024C4
:100AA000AA830932AB724A7088714B71B24BB34D55
:100AB0005A68A4052A4022435A605A692A401443BE
:100AC000AF4A5C611A60AF4AAF4C1A615A68144071
:100AD0008022920222435A605A68920B92035A6013
:100AE0000023487133713079FEBD10200A7A02422A
:100AF000F9D0A34AA54C17780872277657786776FD
:100B000097786783678BBC466046D7783F02074378
:100B100067831779A7835779A08B3F020743A78381
:100B20009779E783D279E78B12023A434027E28331
:100B30004F71627E207E120202439548824200D1AC
:100B4000F1E026DC8020400082421CD00BDC812AB0
:100B500004D0822A00D1BEE0802A14D1210023844F
:100B6000203102224EE081235B009A4200D125E130
:100B700000DAF6E0FF33FF339A4200D1CEE0854B36
:100B80009A4200D1EDE02023FF35AA791343AB71DF
:100B9000A9E7902109018A426CD017DCD021C90055
:100BA0008A4222D0882109018A4200D190E0A02304
:100BB000DB009A42E7D12800FFF75CFC8023628BC0
:100BC0005B4213433268DBB293728CE7724B9A42FA
:100BD00000D1C6E0D7DD714B9A4200D149E1704B9C
:100BE0009A42D0D1638B7371BBE0638B1B0A012BDC
:100BF0000CD11222E38B934201D8E28B92B20023F4
:100C0000684934312800FFF7BDFE6CE7638B1B0A8F
:100C1000022B09D14322E38B934201D8E28B92B29B
:100C2000614900230431EDE7638B1B0A032BAAD132
:100C3000638BDBB2012B16D0002B05D0022BA2D187
:100C4000E28B5A49D2B211E056490422463101A83A
:100C500000F056FB0422E38B934201D8E28B92B260
:100C6000002301A9CEE7E28B5149D2B22800FFF759
:100C7000E7FE38E7638B28003371FFF7FBFBA02307
:100C80000322C0215B00EA543B4B3C485A6C890567
:100C900002400A435A644622FF32AF54454A302488
:100CA0001A6490225200AC545A6B024011439222B3
:100CB000596380215200A9543F4A1A63B02252005E
:100CC000AF545A6F10405867B2235B00E9540AE7EB
:100CD000311D012296E750220F202384A38B13405D
:100CE000E21CD377A38B0340A383A38B032B15D8DC
:100CF000D37F002B0BD0A38B08335B01EB189B79C0
:100D00009B062100DB0F23842031002329E7A38BDE
:100D100008335B01EB189B79DB06F2E720238A7925
:100D200013438B71DFE680220F21A38B1340E21C5B
:100D3000D377A38B0B40A383638B002B00D022E7D8
:100D4000A38B002B00D11EE7A38B032B00D91AE73E
:100D5000D37F002B09D02022A38B08335B01EB1833
:100D60005A712800FFF786FBBDE6A38B10220833DB
:100D70005B01EB18F4E7C04628030020FFFFFF8F5C
:100D8000A802002028020020FF3F00F0F800002009
:100D9000020300000103000021200000A121000047
:100DA000212200003813000000000020F11500008F
:100DB000E5150000E8020020680200208022A38BD5
:100DC0001340E21CD3770F22A38B1340A383638BC2
:100DD000002B00D0D7E6A38B002B00D1D3E6A38B4A
:100DE000032B00D9CFE6E31CDB7F002B20D0A38BA5
:100DF00008335B01EB189B799B06B2D5A38B1132AC
:100E000008335B01EB181A71A38B08335B01EB18F5
:100E1000DB795B06A5D5A38B203208335B01EB1889
:100E2000DA71A38B3E3A08335B01EB181A7198E72D
:100E3000A38B08335B01EB189B79DB0691D510225D
:100E4000A38B08335B01EB181A71A38B08335B018A
:100E5000EB18DB799B0600D483E7A38B9218083349
:100E60005B01EB18DA71A38B1F3A08335B01EB18B7
:100E7000DCE70822E38B934201D8E28B92B202496D
:100E800000234831BEE6C04600000020F8B50B4FF5
:100E9000060038000C300D00FFF7F5FD2C0000288F
:100EA00008D1050008E022003100F868FFF71EFDB8
:100EB000241A3618002CF6D12800F8BDF8000020BE
:100EC00070B5084C050020000C300E00FFF7DBFD6C
:100ED00003000020834204D032002900E068FFF7BD
:100EE00005FD70BDF800002010B5084C20000C3046
:100EF000FFF7C9FD03000020834205D04823E268C4
:100F0000FF33D05CC007C00F10BDC046F800002002
:100F10000D4A0E4870B5824206D10D4A0D4B002194
:100F200093420DD100F01AF80B4C00239442F4D0F8
:100F3000D1188842F1D9E55804330D60F8E702C3AF
:100F40009342FCD3EEE7C046000000205C00002086
:100F5000A80300205C000020081600008022C14B7E
:100F60001203F0B59A609A61802292029A609A61A7
:100F7000BD4A85B0116800AF7B604B1C0DD0BB4BE8
:100F8000BB485862FF231A4207D181F30888110039
:100F90009943B84B9960536818471E210226B64AF8
:100FA000B64D53688B4333435360B54BAB82AB8A2A
:100FB0003343AB82EB683342FCD00123B14CA360D6
:100FC000FFF750FAB04B6360FFF74CFA8223DB0166
:100FD0006380FFF747FA8022AB8C9343AB84FFF723
:100FE00039FAAA4BEB62FFF735FAAA8CA84B1343E8
:100FF000AB84FFF72FFAAB8C1E438023AE8419001D
:10100000403BEA680A42FCD0EA681A42F9D000255F
:10101000FFF720FAA560FFF725FA9E4B6360FFF704
:1010200021FAC0219C4A9D4B92485360036A0906ED
:101030001B021B0A0B43036207239560136062B611
:1010400001260F21964D2B7833432B70954B1D783D
:101050008D431D70022519780D431D70924D29781E
:10106000314329700F2519780D4020211D701D78FE
:101070002943197004238D490D6A2B430B628C4B55
:101080006380864BB860FA603B6063785BB2002B8C
:10109000FBDB884A1300D0698007FCD40225106866
:1010A000A8431060DA69D207FCD401221868024311
:1010B0001A601A68D207FCD4DA69D207FCD4DA695C
:1010C0009207F9D47C4A1A60DA695207FCD4C0222C
:1010D00092025A60794A9A81DA699207D20FFBD15B
:1010E00002201D682843614D18602B0028331A70B8
:1010F0002B0029331A702B002A331A702B002B3344
:101100001A702B002C331A706D4B1A702023CA6989
:101110001343CB6101236B490A781A430A700F21EC
:10112000694A107888431070062016783043107092
:10113000664806783343037013780B4013706023BE
:1011400011780B431370624B638063785BB2002BA2
:10115000FBDB01235F4C227813432370A378DB076A
:10116000FCD41F215C4A1368580B0840884200D108
:101170000520268D594B08408001334003432385C9
:1011800013689B0C0B401F2B00D1023B1F2007262E
:10119000218D034081430B4323851368DB0D3340CE
:1011A000B34200D10323228D4D4933400A401B0333
:1011B00013437F22238523784A4813402370042356
:1011C0002278002113430C22237060622389934309
:1011D000238123890B3A934323817F3200F088F8DF
:1011E0000022414BEC606B6102232A8221780B4381
:1011F0002370802379689B028B60FB683968596093
:10120000C021BB6809061B6A1B021B0A0B43B96895
:101210000B62FB689A60FB681E6001262C002D346F
:1012200028006B690C309847002800D0267023787E
:10123000002B05D02D4B224A4C33D360FFF72CF9FD
:101240002378002BECD1FEF71FFF0028E6D0FEF735
:1012500023FF2328E2D1254B194A6833D3600123A9
:101260002B70EBE70044004100200000F800002054
:101270000420000000ED00E00040004100080040B4
:101280000C060000000C004001050100B805FF7DC0
:10129000040A00000007030010E000E0E70300007C
:1012A0004A440041354400414B44004100040040A1
:1012B0001440000000080042040031402AF6FFFFFD
:1012C00078000020584400413C440041594400410A
:1012D0000640000000500041246080003FF8FFFFFE
:1012E000FF8FFFFF28030020870A0000381300004B
:1012F00003001218934200D1704719700133F9E7C7
:10130000002310B59A4200D110BDCC5CC454013307
:10131000F8E70023C25C0133002AFBD1581E704756
:10132000F8B5C046F8BC08BC9E467047F8B5C04644
:10133000F8BC08BC9E467047080000001000000082
:1013400020000000400000008000000000010000BC
:101350000002000000040000322E30005B41726485
:1013600075696E6F3A58595A5D000000120100020B
:101370000200004041234D0000020102000104036D
:1013800009040000250A000069090000E90E0000B8
:10139000090A0000C10E0000090A00008D0E0000BD
:1013A0002F010000990000008900000001030000E7
:1013B000210100000D020000450100000000211085
:1013C000422063308440A550C660E77008812991AF
:1013D0004AA16BB18CC1ADD1CEE1EFF13112100257
:1013E00073325222B5529442F772D66239931883FF
:1013F0007BB35AA3BDD39CC3FFF3DEE36224433423
:1014000020040114E664C774A44485546AA54BB54E
:1014100028850995EEE5CFF5ACC58DD553367226F6
:1014200011163006D776F6669556B4465BB77AA79E
:1014300019973887DFF7FEE79DD7BCC7C448E55842
:101440008668A7784008611802282338CCC9EDD9EE
:101450008EE9AFF9488969990AA92BB9F55AD44A96
:10146000B77A966A711A500A333A122AFDDBDCCB3E
:10147000BFFB9EEB799B588B3BBB1AABA66C877C62
:10148000E44CC55C222C033C600C411CAEED8FFD8E
:10149000ECCDCDDD2AAD0BBD688D499D977EB66E36
:1014A000D55EF44E133E322E511E700E9FFFBEEFDE
:1014B000DDDFFCCF1BBF3AAF599F788F8891A981A0
:1014C000CAB1EBA10CD12DC14EF16FE18010A1008A
:1014D000C230E3200450254046706760B98398937A
:1014E000FBA3DAB33DC31CD37FE35EF3B1029012DA
:1014F000F322D2323542145277625672EAB5CBA546
:10150000A89589856EF54FE52CD50DC5E234C32429
:10151000A01481046674476424540544DBA7FAB719
:101520009987B8975FE77EF71DC73CD7D326F23679
:101530009106B01657667676154634564CD96DC965
:101540000EF92FE9C899E9898AB9ABA944586548C9
:1015500006782768C018E1088238A3287DCB5CDBB9
:101560003FEB1EFBF98BD89BBBAB9ABB754A545A19
:10157000376A167AF10AD01AB32A923A2EFD0FED85
:101580006CDD4DCDAABD8BADE89DC98D267C076C69
:10159000645C454CA23C832CE01CC10C1FEF3EFF59
:1015A0005DCF7CDF9BAFBABFD98FF89F176E367EB9
:1015B000554E745E932EB23ED10EF01E7600200082
:1015C00053657020203820323032300031333A33C6
:1015D000333A333800580A0D00590A0D005A0023D7
:1015E0000A0D003E0041726475696E6F204C4C43D9
:1015F000004C6F6F6E617465632053414D4432310E
:081600000000000000000000E2
:1016080001140000090243000201008032090400AD
:101618000001020200000524001001042402000554
:10162800240600010524010001070583030800FFC3
:1016380009040100020A00000007058102400000B9
:10164800070502024000000000C201000000080077
:0C165800010000006900000041000000DB
:0400000300000F11D9
:00000001FF
